S00B000073746D33325F733336
S3150800000000F0FF20410100084301000845010008EF
S3150800001047010008490100084B0100084D01000886
S315080000204F01000851010008530100085501000856
S3150800003057010008590100085B0100085D01000826
S315080000405F010008610100086301000865010008F6
S3150800005067010008690100086B0100086D010008C6
S315080000606F01000871010008730100087501000896
S3150800007077010008790100087B0100087D01000866
S315080000C010B5034C014B1847014C2047FEE700BF0B
S315080000D0010000084101000810B50021044A10601B
S315080000E050609060D060FEE7C000002070B5064CF6
S315080000F0044D044EAB4F20469847002070BD00BF04
S30B08000100FDFDFDFDFDFDFD
S31508010000AA55AA550100000001020008C4E7020426
S3160801001048657853636F70650053544D3332463100E1
S3160801002030334338543600000076312E302E300000F5
S315080100304F4B00004552520000000000000000002E
S5030011EB
S705080000C131
